{
  "contractName": "Disney",
  "abi": [
    {
      "inputs": [],
      "stateMutability": "nonpayable",
      "type": "constructor"
    },
    {
      "anonymous": false,
      "inputs": [
        {
          "indexed": false,
          "internalType": "string",
          "name": "",
          "type": "string"
        }
      ],
      "name": "damagedAttraction",
      "type": "event"
    },
    {
      "anonymous": false,
      "inputs": [
        {
          "indexed": false,
          "internalType": "string",
          "name": "",
          "type": "string"
        }
      ],
      "name": "enjoyAttraction",
      "type": "event"
    },
    {
      "anonymous": false,
      "inputs": [
        {
          "indexed": false,
          "internalType": "string",
          "name": "",
          "type": "string"
        }
      ],
      "name": "newAttraction",
      "type": "event"
    },
    {
      "inputs": [
        {
          "internalType": "string",
          "name": "",
          "type": "string"
        }
      ],
      "name": "_attractions",
      "outputs": [
        {
          "internalType": "uint256",
          "name": "price",
          "type": "uint256"
        },
        {
          "internalType": "bool",
          "name": "state",
          "type": "bool"
        }
      ],
      "stateMutability": "view",
      "type": "function",
      "constant": true
    },
    {
      "inputs": [],
      "name": "_owner",
      "outputs": [
        {
          "internalType": "address payable",
          "name": "",
          "type": "address"
        }
      ],
      "stateMutability": "view",
      "type": "function",
      "constant": true
    },
    {
      "inputs": [
        {
          "internalType": "address",
          "name": "",
          "type": "address"
        }
      ],
      "name": "usersDisney",
      "outputs": [
        {
          "internalType": "uint256",
          "name": "_tokensBuyed",
          "type": "uint256"
        },
        {
          "internalType": "uint256",
          "name": "_tokensSpent",
          "type": "uint256"
        },
        {
          "internalType": "uint256",
          "name": "_tokensRemaining",
          "type": "uint256"
        }
      ],
      "stateMutability": "view",
      "type": "function",
      "constant": true
    },
    {
      "inputs": [
        {
          "internalType": "uint256",
          "name": "_tokensDisney",
          "type": "uint256"
        }
      ],
      "name": "buyTokensDisney",
      "outputs": [
        {
          "internalType": "bool",
          "name": "",
          "type": "bool"
        }
      ],
      "stateMutability": "payable",
      "type": "function",
      "payable": true
    },
    {
      "inputs": [],
      "name": "myTokens",
      "outputs": [
        {
          "internalType": "uint256",
          "name": "",
          "type": "uint256"
        }
      ],
      "stateMutability": "view",
      "type": "function",
      "constant": true
    },
    {
      "inputs": [],
      "name": "balanceTokensDisney",
      "outputs": [
        {
          "internalType": "uint256",
          "name": "",
          "type": "uint256"
        }
      ],
      "stateMutability": "view",
      "type": "function",
      "constant": true
    },
    {
      "inputs": [],
      "name": "totalSuplyDisney",
      "outputs": [
        {
          "internalType": "uint256",
          "name": "",
          "type": "uint256"
        }
      ],
      "stateMutability": "view",
      "type": "function",
      "constant": true
    },
    {
      "inputs": [
        {
          "internalType": "string",
          "name": "_name",
          "type": "string"
        },
        {
          "internalType": "uint256",
          "name": "_price",
          "type": "uint256"
        }
      ],
      "name": "addAttraction",
      "outputs": [
        {
          "internalType": "bool",
          "name": "",
          "type": "bool"
        }
      ],
      "stateMutability": "nonpayable",
      "type": "function"
    },
    {
      "inputs": [
        {
          "internalType": "string",
          "name": "_name",
          "type": "string"
        }
      ],
      "name": "disableAttraction",
      "outputs": [
        {
          "internalType": "bool",
          "name": "",
          "type": "bool"
        }
      ],
      "stateMutability": "nonpayable",
      "type": "function"
    },
    {
      "inputs": [
        {
          "internalType": "string",
          "name": "_name",
          "type": "string"
        }
      ],
      "name": "enabledAttraction",
      "outputs": [
        {
          "internalType": "bool",
          "name": "",
          "type": "bool"
        }
      ],
      "stateMutability": "nonpayable",
      "type": "function"
    },
    {
      "inputs": [
        {
          "internalType": "string",
          "name": "_name",
          "type": "string"
        }
      ],
      "name": "isEnabledAttraction",
      "outputs": [
        {
          "internalType": "bool",
          "name": "",
          "type": "bool"
        }
      ],
      "stateMutability": "view",
      "type": "function",
      "constant": true
    },
    {
      "inputs": [
        {
          "internalType": "string",
          "name": "_name",
          "type": "string"
        }
      ],
      "name": "useAttraction",
      "outputs": [
        {
          "internalType": "bool",
          "name": "",
          "type": "bool"
        },
        {
          "internalType": "uint256",
          "name": "",
          "type": "uint256"
        }
      ],
      "stateMutability": "payable",
      "type": "function",
      "payable": true
    },
    {
      "inputs": [],
      "name": "getHistorialClient",
      "outputs": [
        {
          "internalType": "string[]",
          "name": "",
          "type": "string[]"
        }
      ],
      "stateMutability": "view",
      "type": "function",
      "constant": true
    },
    {
      "inputs": [
        {
          "internalType": "uint256",
          "name": "_tokens",
          "type": "uint256"
        }
      ],
      "name": "returnTokens",
      "outputs": [
        {
          "internalType": "bool",
          "name": "",
          "type": "bool"
        }
      ],
      "stateMutability": "payable",
      "type": "function",
      "payable": true
    }
  ],
  "bytecode": "0x60806040523480156200001157600080fd5b506040516200002090620000c4565b604051809103906000f0801580156200003d573d6000803e3d6000fd5b506000806101000a81548173ffffffffffffffffffffffffffffffffffffffff021916908373ffffffffffffffffffffffffffffffffffffffff16021790555033600160006101000a81548173ffffffffffffffffffffffffffffffffffffffff021916908373ffffffffffffffffffffffffffffffffffffffff160217905550620000d2565b6121ef806200289183390190565b6127af80620000e26000396000f3fe6080604052600436106100dd5760003560e01c8063949e8acd1161007f578063bdd0218a11610059578063bdd0218a146102e5578063cb0a4a3314610322578063d993476d14610353578063dad7aa9814610390576100dd565b8063949e8acd14610264578063a56a23851461028f578063b2bdfa7b146102ba576100dd565b806344decb85116100bb57806344decb851461016d578063482425df146101aa57806380afa91f146101e95780638c3603b914610227576100dd565b8063232f2932146100e25780633ae1786f1461010d5780633e61afcb1461013d575b600080fd5b3480156100ee57600080fd5b506100f76103bb565b6040516101049190611813565b60405180910390f35b6101276004803603810190610122919061186e565b61045d565b60405161013491906118b6565b60405180910390f35b6101576004803603810190610152919061186e565b6105d3565b60405161016491906118b6565b60405180910390f35b34801561017957600080fd5b50610194600480360381019061018f9190611a17565b610a84565b6040516101a191906118b6565b60405180910390f35b3480156101b657600080fd5b506101d160048036038101906101cc9190611abe565b610bd0565b6040516101e093929190611aeb565b60405180910390f35b3480156101f557600080fd5b50610210600480360381019061020b9190611a17565b610bfa565b60405161021e929190611b22565b60405180910390f35b34801561023357600080fd5b5061024e60048036038101906102499190611b4b565b610c41565b60405161025b91906118b6565b60405180910390f35b34801561027057600080fd5b50610279610d7f565b6040516102869190611813565b60405180910390f35b34801561029b57600080fd5b506102a4610e21565b6040516102b19190611813565b60405180910390f35b3480156102c657600080fd5b506102cf610eb8565b6040516102dc9190611bc8565b60405180910390f35b3480156102f157600080fd5b5061030c60048036038101906103079190611a17565b610ede565b60405161031991906118b6565b60405180910390f35b61033c60048036038101906103379190611a17565b611061565b60405161034a929190611be3565b60405180910390f35b34801561035f57600080fd5b5061037a60048036038101906103759190611a17565b611450565b60405161038791906118b6565b60405180910390f35b34801561039c57600080fd5b506103a5611488565b6040516103b29190611d56565b60405180910390f35b60008060009054906101000a900473ffffffffffffffffffffffffffffffffffffffff1673ffffffffffffffffffffffffffffffffffffffff166370a08231306040518263ffffffff1660e01b81526004016104179190611d87565b602060405180830381865afa158015610434573d6000803e3d6000fd5b505050506040513d601f19601f820116820180604052508101906104589190611db7565b905090565b600081610468610d7f565b10156104a9576040517f08c379a00000000000000000000000000000000000000000000000000000000081526004016104a090611e41565b60405180910390fd5b600082116104ec576040517f08c379a00000000000000000000000000000000000000000000000000000000081526004016104e390611ead565b60405180910390fd5b60008054906101000a900473ffffffffffffffffffffffffffffffffffffffff1673ffffffffffffffffffffffffffffffffffffffff166330e0789e3330856040518463ffffffff1660e01b815260040161054993929190611ecd565b600060405180830381600087803b15801561056357600080fd5b505af1158015610577573d6000803e3d6000fd5b505050503373ffffffffffffffffffffffffffffffffffffffff166108fc61059e846115a1565b9081150290604051600060405180830381858888f193505050501580156105c9573d6000803e3d6000fd5b5060019050919050565b6000600160009054906101000a900473ffffffffffffffffffffffffffffffffffffffff1673ffffffffffffffffffffffffffffffffffffffff163373ffffffffffffffffffffffffffffffffffffffff161415610666576040517f08c379a000000000000000000000000000000000000000000000000000000000815260040161065d90611f50565b60405180910390fd5b600082116106a9576040517f08c379a00000000000000000000000000000000000000000000000000000000081526004016106a090611fe2565b60405180910390fd5b60008054906101000a900473ffffffffffffffffffffffffffffffffffffffff1673ffffffffffffffffffffffffffffffffffffffff166318160ddd6040518163ffffffff1660e01b8152600401602060405180830381865afa158015610714573d6000803e3d6000fd5b505050506040513d601f19601f820116820180604052508101906107389190611db7565b8210610779576040517f08c379a00000000000000000000000000000000000000000000000000000000081526004016107709061204e565b60405180910390fd5b6000610784836115a1565b90508034116107c8576040517f08c379a00000000000000000000000000000000000000000000000000000000081526004016107bf906120e0565b60405180910390fd5b600081346107d6919061212f565b90503373ffffffffffffffffffffffffffffffffffffffff166108fc829081150290604051600060405180830381858888f1935050505015801561081e573d6000803e3d6000fd5b5060008054906101000a900473ffffffffffffffffffffffffffffffffffffffff1673ffffffffffffffffffffffffffffffffffffffff1663a9059cbb33866040518363ffffffff1660e01b815260040161087a929190612163565b6020604051808303816000875af1158015610899573d6000803e3d6000fd5b505050506040513d601f19601f820116820180604052508101906108bd91906121b8565b506000600260003373ffffffffffffffffffffffffffffffffffffffff1673ffffffffffffffffffffffffffffffffffffffff1681526020019081526020016000206000015411156109ba5761095e84600260003373ffffffffffffffffffffffffffffffffffffffff1673ffffffffffffffffffffffffffffffffffffffff168152602001908152602001600020600001546115c590919063ffffffff16565b506109b484600260003373ffffffffffffffffffffffffffffffffffffffff1673ffffffffffffffffffffffffffffffffffffffff168152602001908152602001600020600201546115c590919063ffffffff16565b50610a79565b606060006040518060800160405280878152602001600081526020018781526020018381525090506109f7866003546115c590919063ffffffff16565b5080600260003373ffffffffffffffffffffffffffffffffffffffff1673ffffffffffffffffffffffffffffffffffffffff1681526020019081526020016000206000820151816000015560208201518160010155604082015181600201556060820151816003019080519060200190610a72929190611693565b5090505050505b600192505050919050565b600033600160009054906101000a900473ffffffffffffffffffffffffffffffffffffffff1673ffffffffffffffffffffffffffffffffffffffff163373ffffffffffffffffffffffffffffffffffffffff1614610b17576040517f08c379a0000000000000000000000000000000000000000000000000000000008152600401610b0e90612231565b60405180910390fd5b60001515600484604051610b2b919061228d565b908152602001604051809103902060010160009054906101000a900460ff16151514610b8c576040517f08c379a0000000000000000000000000000000000000000000000000000000008152600401610b8390612316565b60405180910390fd5b6001600484604051610b9e919061228d565b908152602001604051809103902060010160006101000a81548160ff0219169083151502179055506001915050919050565b60026020528060005260406000206000915090508060000154908060010154908060020154905083565b6004818051602081018201805184825260208301602085012081835280955050505050506000915090508060000154908060010160009054906101000a900460ff16905082565b600033600160009054906101000a900473ffffffffffffffffffffffffffffffffffffffff1673ffffffffffffffffffffffffffffffffffffffff163373ffffffffffffffffffffffffffffffffffffffff1614610cd4576040517f08c379a0000000000000000000000000000000000000000000000000000000008152600401610ccb90612231565b60405180910390fd5b6000604051806040016040528085815260200160011515815250905080600486604051610d01919061228d565b90815260200160405180910390206000820151816000015560208201518160010160006101000a81548160ff0219169083151502179055509050507fb937f9c78c5053aec4c2b0eef7569c99627c5a89942452763922a9022113c6e985604051610d6b919061236f565b60405180910390a160019250505092915050565b60008060009054906101000a900473ffffffffffffffffffffffffffffffffffffffff1673ffffffffffffffffffffffffffffffffffffffff166370a08231336040518263ffffffff1660e01b8152600401610ddb9190611d87565b602060405180830381865afa158015610df8573d6000803e3d6000fd5b505050506040513d601f19601f82011682018060405250810190610e1c9190611db7565b905090565b60008060009054906101000a900473ffffffffffffffffffffffffffffffffffffffff1673ffffffffffffffffffffffffffffffffffffffff166318160ddd6040518163ffffffff1660e01b8152600401602060405180830381865afa158015610e8f573d6000803e3d6000fd5b505050506040513d601f19601f82011682018060405250810190610eb39190611db7565b905090565b600160009054906101000a900473ffffffffffffffffffffffffffffffffffffffff1681565b600033600160009054906101000a900473ffffffffffffffffffffffffffffffffffffffff1673ffffffffffffffffffffffffffffffffffffffff163373ffffffffffffffffffffffffffffffffffffffff1614610f71576040517f08c379a0000000000000000000000000000000000000000000000000000000008152600401610f6890612231565b60405180910390fd5b60011515600484604051610f85919061228d565b908152602001604051809103902060010160009054906101000a900460ff16151514610fe6576040517f08c379a0000000000000000000000000000000000000000000000000000000008152600401610fdd90612403565b60405180910390fd5b6000600484604051610ff8919061228d565b908152602001604051809103902060010160006101000a81548160ff0219169083151502179055507f2ee1829acb875ac33100e471a5ebd30a13b359cc370ee2d1ad2f8cfda98e82808360405161104f919061236f565b60405180910390a16001915050919050565b60008033600160009054906101000a900473ffffffffffffffffffffffffffffffffffffffff1673ffffffffffffffffffffffffffffffffffffffff163373ffffffffffffffffffffffffffffffffffffffff1614156110f6576040517f08c379a00000000000000000000000000000000000000000000000000000000081526004016110ed90612495565b60405180910390fd5b6001151561110385611450565b151514611145576040517f08c379a000000000000000000000000000000000000000000000000000000000815260040161113c90612527565b60405180910390fd5b600484604051611155919061228d565b90815260200160405180910390206000015461116f610d7f565b10156111b0576040517f08c379a00000000000000000000000000000000000000000000000000000000081526004016111a790611e41565b60405180910390fd5b60008054906101000a900473ffffffffffffffffffffffffffffffffffffffff1673ffffffffffffffffffffffffffffffffffffffff166330e0789e33306004886040516111fe919061228d565b9081526020016040518091039020600001546040518463ffffffff1660e01b815260040161122e93929190611ecd565b600060405180830381600087803b15801561124857600080fd5b505af115801561125c573d6000803e3d6000fd5b505050506112d6600485604051611273919061228d565b908152602001604051809103902060000154600260003373ffffffffffffffffffffffffffffffffffffffff1673ffffffffffffffffffffffffffffffffffffffff168152602001908152602001600020600101546115c590919063ffffffff16565b5061134d6004856040516112ea919061228d565b908152602001604051809103902060000154600260003373ffffffffffffffffffffffffffffffffffffffff1673ffffffffffffffffffffffffffffffffffffffff168152602001908152602001600020600201546115f190919063ffffffff16565b50600260003373ffffffffffffffffffffffffffffffffffffffff1673ffffffffffffffffffffffffffffffffffffffff168152602001908152602001600020600301849080600181540180825580915050600190039060005260206000200160009091909190915090805190602001906113c99291906116f3565b507fa74f7bc8d5369b0f99d42dee4ba2d57dd88a6ada525dc4719a67ff755cbc3f09846040516113f9919061236f565b60405180910390a16001600260003373ffffffffffffffffffffffffffffffffffffffff1673ffffffffffffffffffffffffffffffffffffffff168152602001908152602001600020600201549250925050915091565b6000600482604051611462919061228d565b908152602001604051809103902060010160009054906101000a900460ff169050919050565b6060600260003373ffffffffffffffffffffffffffffffffffffffff1673ffffffffffffffffffffffffffffffffffffffff168152602001908152602001600020600301805480602002602001604051908101604052809291908181526020016000905b8282101561159857838290600052602060002001805461150b90612576565b80601f016020809104026020016040519081016040528092919081815260200182805461153790612576565b80156115845780601f1061155957610100808354040283529160200191611584565b820191906000526020600020905b81548152906001019060200180831161156757829003601f168201915b5050505050815260200190600101906114ec565b50505050905090565b60006115be67016345785d8a00008361161890919063ffffffff16565b9050919050565b60008082846115d491906125a8565b9050838110156115e7576115e66125fe565b5b8091505092915050565b600082821115611604576116036125fe565b5b8183611610919061212f565b905092915050565b60008083141561162b576000905061168d565b60008284611639919061262d565b905082848261164891906126b6565b14611688576040517f08c379a000000000000000000000000000000000000000000000000000000000815260040161167f90612759565b60405180910390fd5b809150505b92915050565b8280548282559060005260206000209081019282156116e2579160200282015b828111156116e15782518290805190602001906116d19291906116f3565b50916020019190600101906116b3565b5b5090506116ef9190611779565b5090565b8280546116ff90612576565b90600052602060002090601f0160209004810192826117215760008555611768565b82601f1061173a57805160ff1916838001178555611768565b82800160010185558215611768579182015b8281111561176757825182559160200191906001019061174c565b5b509050611775919061179d565b5090565b5b80821115611799576000818161179091906117ba565b5060010161177a565b5090565b5b808211156117b657600081600090555060010161179e565b5090565b5080546117c690612576565b6000825580601f106117d857506117f7565b601f0160209004906000526020600020908101906117f6919061179d565b5b50565b6000819050919050565b61180d816117fa565b82525050565b60006020820190506118286000830184611804565b92915050565b6000604051905090565b600080fd5b600080fd5b61184b816117fa565b811461185657600080fd5b50565b60008135905061186881611842565b92915050565b60006020828403121561188457611883611838565b5b600061189284828501611859565b91505092915050565b60008115159050919050565b6118b08161189b565b82525050565b60006020820190506118cb60008301846118a7565b92915050565b600080fd5b600080fd5b6000601f19601f8301169050919050565b7f4e487b7100000000000000000000000000000000000000000000000000000000600052604160045260246000fd5b611924826118db565b810181811067ffffffffffffffff82111715611943576119426118ec565b5b80604052505050565b600061195661182e565b9050611962828261191b565b919050565b600067ffffffffffffffff821115611982576119816118ec565b5b61198b826118db565b9050602081019050919050565b82818337600083830152505050565b60006119ba6119b584611967565b61194c565b9050828152602081018484840111156119d6576119d56118d6565b5b6119e1848285611998565b509392505050565b600082601f8301126119fe576119fd6118d1565b5b8135611a0e8482602086016119a7565b91505092915050565b600060208284031215611a2d57611a2c611838565b5b600082013567ffffffffffffffff811115611a4b57611a4a61183d565b5b611a57848285016119e9565b91505092915050565b600073ffffffffffffffffffffffffffffffffffffffff82169050919050565b6000611a8b82611a60565b9050919050565b611a9b81611a80565b8114611aa657600080fd5b50565b600081359050611ab881611a92565b92915050565b600060208284031215611ad457611ad3611838565b5b6000611ae284828501611aa9565b91505092915050565b6000606082019050611b006000830186611804565b611b0d6020830185611804565b611b1a6040830184611804565b949350505050565b6000604082019050611b376000830185611804565b611b4460208301846118a7565b9392505050565b60008060408385031215611b6257611b61611838565b5b600083013567ffffffffffffffff811115611b8057611b7f61183d565b5b611b8c858286016119e9565b9250506020611b9d85828601611859565b9150509250929050565b6000611bb282611a60565b9050919050565b611bc281611ba7565b82525050565b6000602082019050611bdd6000830184611bb9565b92915050565b6000604082019050611bf860008301856118a7565b611c056020830184611804565b9392505050565b600081519050919050565b600082825260208201905092915050565b6000819050602082019050919050565b600081519050919050565b600082825260208201905092915050565b60005b83811015611c72578082015181840152602081019050611c57565b83811115611c81576000848401525b50505050565b6000611c9282611c38565b611c9c8185611c43565b9350611cac818560208601611c54565b611cb5816118db565b840191505092915050565b6000611ccc8383611c87565b905092915050565b6000602082019050919050565b6000611cec82611c0c565b611cf68185611c17565b935083602082028501611d0885611c28565b8060005b85811015611d445784840389528151611d258582611cc0565b9450611d3083611cd4565b925060208a01995050600181019050611d0c565b50829750879550505050505092915050565b60006020820190508181036000830152611d708184611ce1565b905092915050565b611d8181611a80565b82525050565b6000602082019050611d9c6000830184611d78565b92915050565b600081519050611db181611842565b92915050565b600060208284031215611dcd57611dcc611838565b5b6000611ddb84828501611da2565b91505092915050565b600082825260208201905092915050565b7f596f7520646f6e74206861766520656e6f75676820746f6b656e730000000000600082015250565b6000611e2b601b83611de4565b9150611e3682611df5565b602082019050919050565b60006020820190508181036000830152611e5a81611e1e565b9050919050565b7f596f75206e756d62657220746f6b656e732061726520696e76616c6964000000600082015250565b6000611e97601d83611de4565b9150611ea282611e61565b602082019050919050565b60006020820190508181036000830152611ec681611e8a565b9050919050565b6000606082019050611ee26000830186611d78565b611eef6020830185611d78565b611efc6040830184611804565b949350505050565b7f4f776e657220436f6e74726163742063616e742062757920746f6b656e730000600082015250565b6000611f3a601e83611de4565b9150611f4582611f04565b602082019050919050565b60006020820190508181036000830152611f6981611f2d565b9050919050565b7f4e756d626572206f6620746f6b656e73206d757374206265206d6f726520746860008201527f616e207a65726f00000000000000000000000000000000000000000000000000602082015250565b6000611fcc602783611de4565b9150611fd782611f70565b604082019050919050565b60006020820190508181036000830152611ffb81611fbf565b9050919050565b7f546f6b656e73204469736e6579206e6f7420617661696c61626c650000000000600082015250565b6000612038601b83611de4565b915061204382612002565b602082019050919050565b600060208201905081810360008301526120678161202b565b9050919050565b7f596f7520646f6e74206861766520656e6f75676820657468657220666f72207460008201527f6869732070757263686173650000000000000000000000000000000000000000602082015250565b60006120ca602c83611de4565b91506120d58261206e565b604082019050919050565b600060208201905081810360008301526120f9816120bd565b9050919050565b7f4e487b7100000000000000000000000000000000000000000000000000000000600052601160045260246000fd5b600061213a826117fa565b9150612145836117fa565b92508282101561215857612157612100565b5b828203905092915050565b60006040820190506121786000830185611d78565b6121856020830184611804565b9392505050565b6121958161189b565b81146121a057600080fd5b50565b6000815190506121b28161218c565b92915050565b6000602082840312156121ce576121cd611838565b5b60006121dc848285016121a3565b91505092915050565b7f596f7520617265206e6f7420746865206f776e65720000000000000000000000600082015250565b600061221b601583611de4565b9150612226826121e5565b602082019050919050565b6000602082019050818103600083015261224a8161220e565b9050919050565b600081905092915050565b600061226782611c38565b6122718185612251565b9350612281818560208601611c54565b80840191505092915050565b6000612299828461225c565b915081905092915050565b7f5468652061747472616374696f6e2068617320616c7265616479206265656e2060008201527f656e61626c656400000000000000000000000000000000000000000000000000602082015250565b6000612300602783611de4565b915061230b826122a4565b604082019050919050565b6000602082019050818103600083015261232f816122f3565b9050919050565b600061234182611c38565b61234b8185611de4565b935061235b818560208601611c54565b612364816118db565b840191505092915050565b600060208201905081810360008301526123898184612336565b905092915050565b7f5468652061747472616374696f6e2068617320616c7265616479206265656e2060008201527f64697361626c6564000000000000000000000000000000000000000000000000602082015250565b60006123ed602883611de4565b91506123f882612391565b604082019050919050565b6000602082019050818103600083015261241c816123e0565b9050919050565b7f596f752061726520746865206f776e65722c20796f752063616e60742075736560008201527f207468652061747472616374696f6e0000000000000000000000000000000000602082015250565b600061247f602f83611de4565b915061248a82612423565b604082019050919050565b600060208201905081810360008301526124ae81612472565b9050919050565b7f5468652061747472616374696f6e2069732064697361626c65642c207573652060008201527f6f746865722061747472616374696f6e00000000000000000000000000000000602082015250565b6000612511603083611de4565b915061251c826124b5565b604082019050919050565b6000602082019050818103600083015261254081612504565b9050919050565b7f4e487b7100000000000000000000000000000000000000000000000000000000600052602260045260246000fd5b6000600282049050600182168061258e57607f821691505b602082108114156125a2576125a1612547565b5b50919050565b60006125b3826117fa565b91506125be836117fa565b9250827fffffffffffffffffffffffffffffffffffffffffffffffffffffffffffffffff038211156125f3576125f2612100565b5b828201905092915050565b7f4e487b7100000000000000000000000000000000000000000000000000000000600052600160045260246000fd5b6000612638826117fa565b9150612643836117fa565b9250817fffffffffffffffffffffffffffffffffffffffffffffffffffffffffffffffff048311821515161561267c5761267b612100565b5b828202905092915050565b7f4e487b7100000000000000000000000000000000000000000000000000000000600052601260045260246000fd5b60006126c1826117fa565b91506126cc836117fa565b9250826126dc576126db612687565b5b828204905092915050565b7f536166654d6174683a206d756c7469706c69636174696f6e206f766572666c6f60008201527f7700000000000000000000000000000000000000000000000000000000000000602082015250565b6000612743602183611de4565b915061274e826126e7565b604082019050919050565b6000602082019050818103600083015261277281612736565b905091905056fea2646970667358221220cb8e9b9b93a6e118371dfef46c79b901ee3e9ce5ce9d767ccfebfec53ea24b0764736f6c634300080b00336080604052620f42406006553480156200001857600080fd5b506040518060400160405280600b81526020017f4469736e6579546f6b656e0000000000000000000000000000000000000000008152506040518060400160405280600381526020017f44534e000000000000000000000000000000000000000000000000000000000081525081600390805190602001906200009d92919062000353565b508060049080519060200190620000b692919062000353565b505050620000d9620000cd6200010260201b60201c565b6200010a60201b60201c565b620000fc620000ed6200010260201b60201c565b600654620001d060201b60201c565b620005af565b600033905090565b6000600560009054906101000a900473ffffffffffffffffffffffffffffffffffffffff16905081600560006101000a81548173ffffffffffffffffffffffffffffffffffffffff021916908373ffffffffffffffffffffffffffffffffffffffff1602179055508173ffffffffffffffffffffffffffffffffffffffff168173ffffffffffffffffffffffffffffffffffffffff167f8be0079c531659141344cd1fd0a4f28419497f9722a3daafe3b4186f6b6457e060405160405180910390a35050565b600073ffffffffffffffffffffffffffffffffffffffff168273ffffffffffffffffffffffffffffffffffffffff16141562000243576040517f08c379a00000000000000000000000000000000000000000000000000000000081526004016200023a9062000464565b60405180910390fd5b62000257600083836200034960201b60201c565b80600260008282546200026b9190620004bf565b92505081905550806000808473ffffffffffffffffffffffffffffffffffffffff1673ffffffffffffffffffffffffffffffffffffffff1681526020019081526020016000206000828254620002c29190620004bf565b925050819055508173ffffffffffffffffffffffffffffffffffffffff16600073ffffffffffffffffffffffffffffffffffffffff167fddf252ad1be2c89b69c2b068fc378daa952ba7f163c4a11628f55a4df523b3ef836040516200032991906200052d565b60405180910390a362000345600083836200034e60201b60201c565b5050565b505050565b505050565b828054620003619062000579565b90600052602060002090601f016020900481019282620003855760008555620003d1565b82601f10620003a057805160ff1916838001178555620003d1565b82800160010185558215620003d1579182015b82811115620003d0578251825591602001919060010190620003b3565b5b509050620003e09190620003e4565b5090565b5b80821115620003ff576000816000905550600101620003e5565b5090565b600082825260208201905092915050565b7f45524332303a206d696e7420746f20746865207a65726f206164647265737300600082015250565b60006200044c601f8362000403565b9150620004598262000414565b602082019050919050565b600060208201905081810360008301526200047f816200043d565b9050919050565b6000819050919050565b7f4e487b7100000000000000000000000000000000000000000000000000000000600052601160045260246000fd5b6000620004cc8262000486565b9150620004d98362000486565b9250827fffffffffffffffffffffffffffffffffffffffffffffffffffffffffffffffff0382111562000511576200051062000490565b5b828201905092915050565b620005278162000486565b82525050565b60006020820190506200054460008301846200051c565b92915050565b7f4e487b7100000000000000000000000000000000000000000000000000000000600052602260045260246000fd5b600060028204905060018216806200059257607f821691505b60208210811415620005a957620005a86200054a565b5b50919050565b611c3080620005bf6000396000f3fe608060405234801561001057600080fd5b506004361061010b5760003560e01c806370a08231116100a2578063a457c2d711610071578063a457c2d7146102a8578063a9059cbb146102d8578063d5abeb0114610308578063dd62ed3e14610326578063f2fde38b146103565761010b565b806370a0823114610232578063715018a6146102625780638da5cb5b1461026c57806395d89b411461028a5761010b565b806330e0789e116100de57806330e0789e146101ac578063313ce567146101c857806339509351146101e657806342966c68146102165761010b565b806306fdde0314610110578063095ea7b31461012e57806318160ddd1461015e57806323b872dd1461017c575b600080fd5b610118610372565b6040516101259190611217565b60405180910390f35b610148600480360381019061014391906112d2565b610404565b604051610155919061132d565b60405180910390f35b610166610422565b6040516101739190611357565b60405180910390f35b61019660048036038101906101919190611372565b61042c565b6040516101a3919061132d565b60405180910390f35b6101c660048036038101906101c19190611372565b610524565b005b6101d06107a5565b6040516101dd91906113e1565b60405180910390f35b61020060048036038101906101fb91906112d2565b6107ae565b60405161020d919061132d565b60405180910390f35b610230600480360381019061022b91906113fc565b61085a565b005b61024c60048036038101906102479190611429565b6108ea565b6040516102599190611357565b60405180910390f35b61026a610932565b005b6102746109ba565b6040516102819190611465565b60405180910390f35b6102926109e4565b60405161029f9190611217565b60405180910390f35b6102c260048036038101906102bd91906112d2565b610a76565b6040516102cf919061132d565b60405180910390f35b6102f260048036038101906102ed91906112d2565b610b61565b6040516102ff919061132d565b60405180910390f35b610310610b7f565b60405161031d9190611357565b60405180910390f35b610340600480360381019061033b9190611480565b610b85565b60405161034d9190611357565b60405180910390f35b610370600480360381019061036b9190611429565b610c0c565b005b606060038054610381906114ef565b80601f01602080910402602001604051908101604052809291908181526020018280546103ad906114ef565b80156103fa5780601f106103cf576101008083540402835291602001916103fa565b820191906000526020600020905b8154815290600101906020018083116103dd57829003601f168201915b5050505050905090565b6000610418610411610d04565b8484610d0c565b6001905092915050565b6000600254905090565b6000610439848484610524565b6000600160008673ffffffffffffffffffffffffffffffffffffffff1673ffffffffffffffffffffffffffffffffffffffff1681526020019081526020016000206000610484610d04565b73ffffffffffffffffffffffffffffffffffffffff1673ffffffffffffffffffffffffffffffffffffffff16815260200190815260200160002054905082811015610504576040517f08c379a00000000000000000000000000000000000000000000000000000000081526004016104fb90611593565b60405180910390fd5b61051885610510610d04565b858403610d0c565b60019150509392505050565b600073ffffffffffffffffffffffffffffffffffffffff168373ffffffffffffffffffffffffffffffffffffffff161415610594576040517f08c379a000000000000000000000000000000000000000000000000000000000815260040161058b90611625565b60405180910390fd5b600073ffffffffffffffffffffffffffffffffffffffff168273ffffffffffffffffffffffffffffffffffffffff161415610604576040517f08c379a00000000000000000000000000000000000000000000000000000000081526004016105fb906116b7565b60405180910390fd5b61060f838383610ed7565b60008060008573ffffffffffffffffffffffffffffffffffffffff1673ffffffffffffffffffffffffffffffffffffffff16815260200190815260200160002054905081811015610695576040517f08c379a000000000000000000000000000000000000000000000000000000000815260040161068c90611749565b60405180910390fd5b8181036000808673ffffffffffffffffffffffffffffffffffffffff1673ffffffffffffffffffffffffffffffffffffffff16815260200190815260200160002081905550816000808573ffffffffffffffffffffffffffffffffffffffff1673ffffffffffffffffffffffffffffffffffffffff16815260200190815260200160002060008282546107289190611798565b925050819055508273ffffffffffffffffffffffffffffffffffffffff168473ffffffffffffffffffffffffffffffffffffffff167fddf252ad1be2c89b69c2b068fc378daa952ba7f163c4a11628f55a4df523b3ef8460405161078c9190611357565b60405180910390a361079f848484610edc565b50505050565b60006002905090565b60006108506107bb610d04565b8484600160006107c9610d04565b73ffffffffffffffffffffffffffffffffffffffff1673ffffffffffffffffffffffffffffffffffffffff16815260200190815260200160002060008873ffffffffffffffffffffffffffffffffffffffff1673ffffffffffffffffffffffffffffffffffffffff1681526020019081526020016000205461084b9190611798565b610d0c565b6001905092915050565b610862610d04565b73ffffffffffffffffffffffffffffffffffffffff166108806109ba565b73ffffffffffffffffffffffffffffffffffffffff16146108d6576040517f08c379a00000000000000000000000000000000000000000000000000000000081526004016108cd9061183a565b60405180910390fd5b6108e76108e1610d04565b82610ee1565b50565b60008060008373ffffffffffffffffffffffffffffffffffffffff1673ffffffffffffffffffffffffffffffffffffffff168152602001908152602001600020549050919050565b61093a610d04565b73ffffffffffffffffffffffffffffffffffffffff166109586109ba565b73ffffffffffffffffffffffffffffffffffffffff16146109ae576040517f08c379a00000000000000000000000000000000000000000000000000000000081526004016109a59061183a565b60405180910390fd5b6109b860006110b8565b565b6000600560009054906101000a900473ffffffffffffffffffffffffffffffffffffffff16905090565b6060600480546109f3906114ef565b80601f0160208091040260200160405190810160405280929190818152602001828054610a1f906114ef565b8015610a6c5780601f10610a4157610100808354040283529160200191610a6c565b820191906000526020600020905b815481529060010190602001808311610a4f57829003601f168201915b5050505050905090565b60008060016000610a85610d04565b73ffffffffffffffffffffffffffffffffffffffff1673ffffffffffffffffffffffffffffffffffffffff16815260200190815260200160002060008573ffffffffffffffffffffffffffffffffffffffff1673ffffffffffffffffffffffffffffffffffffffff16815260200190815260200160002054905082811015610b42576040517f08c379a0000000000000000000000000000000000000000000000000000000008152600401610b39906118cc565b60405180910390fd5b610b56610b4d610d04565b85858403610d0c565b600191505092915050565b6000610b75610b6e610d04565b8484610524565b6001905092915050565b60065481565b6000600160008473ffffffffffffffffffffffffffffffffffffffff1673ffffffffffffffffffffffffffffffffffffffff16815260200190815260200160002060008373ffffffffffffffffffffffffffffffffffffffff1673ffffffffffffffffffffffffffffffffffffffff16815260200190815260200160002054905092915050565b610c14610d04565b73ffffffffffffffffffffffffffffffffffffffff16610c326109ba565b73ffffffffffffffffffffffffffffffffffffffff1614610c88576040517f08c379a0000000000000000000000000000000000000000000000000000000008152600401610c7f9061183a565b60405180910390fd5b600073ffffffffffffffffffffffffffffffffffffffff168173ffffffffffffffffffffffffffffffffffffffff161415610cf8576040517f08c379a0000000000000000000000000000000000000000000000000000000008152600401610cef9061195e565b60405180910390fd5b610d01816110b8565b50565b600033905090565b600073ffffffffffffffffffffffffffffffffffffffff168373ffffffffffffffffffffffffffffffffffffffff161415610d7c576040517f08c379a0000000000000000000000000000000000000000000000000000000008152600401610d73906119f0565b60405180910390fd5b600073ffffffffffffffffffffffffffffffffffffffff168273ffffffffffffffffffffffffffffffffffffffff161415610dec576040517f08c379a0000000000000000000000000000000000000000000000000000000008152600401610de390611a82565b60405180910390fd5b80600160008573ffffffffffffffffffffffffffffffffffffffff1673ffffffffffffffffffffffffffffffffffffffff16815260200190815260200160002060008473ffffffffffffffffffffffffffffffffffffffff1673ffffffffffffffffffffffffffffffffffffffff168152602001908152602001600020819055508173ffffffffffffffffffffffffffffffffffffffff168373ffffffffffffffffffffffffffffffffffffffff167f8c5be1e5ebec7d5bd14f71427d1e84f3dd0314c0f7b2291e5b200ac8c7c3b92583604051610eca9190611357565b60405180910390a3505050565b505050565b505050565b600073ffffffffffffffffffffffffffffffffffffffff168273ffffffffffffffffffffffffffffffffffffffff161415610f51576040517f08c379a0000000000000000000000000000000000000000000000000000000008152600401610f4890611b14565b60405180910390fd5b610f5d82600083610ed7565b60008060008473ffffffffffffffffffffffffffffffffffffffff1673ffffffffffffffffffffffffffffffffffffffff16815260200190815260200160002054905081811015610fe3576040517f08c379a0000000000000000000000000000000000000000000000000000000008152600401610fda90611ba6565b60405180910390fd5b8181036000808573ffffffffffffffffffffffffffffffffffffffff1673ffffffffffffffffffffffffffffffffffffffff16815260200190815260200160002081905550816002600082825461103a9190611bc6565b92505081905550600073ffffffffffffffffffffffffffffffffffffffff168373ffffffffffffffffffffffffffffffffffffffff167fddf252ad1be2c89b69c2b068fc378daa952ba7f163c4a11628f55a4df523b3ef8460405161109f9190611357565b60405180910390a36110b383600084610edc565b505050565b6000600560009054906101000a900473ffffffffffffffffffffffffffffffffffffffff16905081600560006101000a81548173ffffffffffffffffffffffffffffffffffffffff021916908373ffffffffffffffffffffffffffffffffffffffff1602179055508173ffffffffffffffffffffffffffffffffffffffff168173ffffffffffffffffffffffffffffffffffffffff167f8be0079c531659141344cd1fd0a4f28419497f9722a3daafe3b4186f6b6457e060405160405180910390a35050565b600081519050919050565b600082825260208201905092915050565b60005b838110156111b857808201518184015260208101905061119d565b838111156111c7576000848401525b50505050565b6000601f19601f8301169050919050565b60006111e98261117e565b6111f38185611189565b935061120381856020860161119a565b61120c816111cd565b840191505092915050565b6000602082019050818103600083015261123181846111de565b905092915050565b600080fd5b600073ffffffffffffffffffffffffffffffffffffffff82169050919050565b60006112698261123e565b9050919050565b6112798161125e565b811461128457600080fd5b50565b60008135905061129681611270565b92915050565b6000819050919050565b6112af8161129c565b81146112ba57600080fd5b50565b6000813590506112cc816112a6565b92915050565b600080604083850312156112e9576112e8611239565b5b60006112f785828601611287565b9250506020611308858286016112bd565b9150509250929050565b60008115159050919050565b61132781611312565b82525050565b6000602082019050611342600083018461131e565b92915050565b6113518161129c565b82525050565b600060208201905061136c6000830184611348565b92915050565b60008060006060848603121561138b5761138a611239565b5b600061139986828701611287565b93505060206113aa86828701611287565b92505060406113bb868287016112bd565b9150509250925092565b600060ff82169050919050565b6113db816113c5565b82525050565b60006020820190506113f660008301846113d2565b92915050565b60006020828403121561141257611411611239565b5b6000611420848285016112bd565b91505092915050565b60006020828403121561143f5761143e611239565b5b600061144d84828501611287565b91505092915050565b61145f8161125e565b82525050565b600060208201905061147a6000830184611456565b92915050565b6000806040838503121561149757611496611239565b5b60006114a585828601611287565b92505060206114b685828601611287565b9150509250929050565b7f4e487b7100000000000000000000000000000000000000000000000000000000600052602260045260246000fd5b6000600282049050600182168061150757607f821691505b6020821081141561151b5761151a6114c0565b5b50919050565b7f45524332303a207472616e7366657220616d6f756e742065786365656473206160008201527f6c6c6f77616e6365000000000000000000000000000000000000000000000000602082015250565b600061157d602883611189565b915061158882611521565b604082019050919050565b600060208201905081810360008301526115ac81611570565b9050919050565b7f45524332303a207472616e736665722066726f6d20746865207a65726f20616460008201527f6472657373000000000000000000000000000000000000000000000000000000602082015250565b600061160f602583611189565b915061161a826115b3565b604082019050919050565b6000602082019050818103600083015261163e81611602565b9050919050565b7f45524332303a207472616e7366657220746f20746865207a65726f206164647260008201527f6573730000000000000000000000000000000000000000000000000000000000602082015250565b60006116a1602383611189565b91506116ac82611645565b604082019050919050565b600060208201905081810360008301526116d081611694565b9050919050565b7f45524332303a207472616e7366657220616d6f756e742065786365656473206260008201527f616c616e63650000000000000000000000000000000000000000000000000000602082015250565b6000611733602683611189565b915061173e826116d7565b604082019050919050565b6000602082019050818103600083015261176281611726565b9050919050565b7f4e487b7100000000000000000000000000000000000000000000000000000000600052601160045260246000fd5b60006117a38261129c565b91506117ae8361129c565b9250827fffffffffffffffffffffffffffffffffffffffffffffffffffffffffffffffff038211156117e3576117e2611769565b5b828201905092915050565b7f4f776e61626c653a2063616c6c6572206973206e6f7420746865206f776e6572600082015250565b6000611824602083611189565b915061182f826117ee565b602082019050919050565b6000602082019050818103600083015261185381611817565b9050919050565b7f45524332303a2064656372656173656420616c6c6f77616e63652062656c6f7760008201527f207a65726f000000000000000000000000000000000000000000000000000000602082015250565b60006118b6602583611189565b91506118c18261185a565b604082019050919050565b600060208201905081810360008301526118e5816118a9565b9050919050565b7f4f776e61626c653a206e6577206f776e657220697320746865207a65726f206160008201527f6464726573730000000000000000000000000000000000000000000000000000602082015250565b6000611948602683611189565b9150611953826118ec565b604082019050919050565b600060208201905081810360008301526119778161193b565b9050919050565b7f45524332303a20617070726f76652066726f6d20746865207a65726f2061646460008201527f7265737300000000000000000000000000000000000000000000000000000000602082015250565b60006119da602483611189565b91506119e58261197e565b604082019050919050565b60006020820190508181036000830152611a09816119cd565b9050919050565b7f45524332303a20617070726f766520746f20746865207a65726f20616464726560008201527f7373000000000000000000000000000000000000000000000000000000000000602082015250565b6000611a6c602283611189565b9150611a7782611a10565b604082019050919050565b60006020820190508181036000830152611a9b81611a5f565b9050919050565b7f45524332303a206275726e2066726f6d20746865207a65726f2061646472657360008201527f7300000000000000000000000000000000000000000000000000000000000000602082015250565b6000611afe602183611189565b9150611b0982611aa2565b604082019050919050565b60006020820190508181036000830152611b2d81611af1565b9050919050565b7f45524332303a206275726e20616d6f756e7420657863656564732062616c616e60008201527f6365000000000000000000000000000000000000000000000000000000000000602082015250565b6000611b90602283611189565b9150611b9b82611b34565b604082019050919050565b60006020820190508181036000830152611bbf81611b83565b9050919050565b6000611bd18261129c565b9150611bdc8361129c565b925082821015611bef57611bee611769565b5b82820390509291505056fea26469706673582212202cf917d0a12b1c67db757559a23f3591def6ffa761de6df3e40132f43377fe4664736f6c634300080b0033",
  "immutableReferences": {},
  "source": "// SPDX-License-Identifier: MIT\npragma solidity ^0.8.0;\npragma experimental ABIEncoderV2;\nimport \"./DisneyToken.sol\";\nimport \"./Safemath.sol\";\n\n\ncontract Disney {\n\n    struct Client {\n        uint256 _tokensBuyed;\n        uint256 _tokensSpent;\n        uint256 _tokensRemaining;\n        string [] _attractions;\n    }\n\n\n    DisneyToken private _token;\n    address payable public _owner;\n    mapping (address => Client) public usersDisney;\n    uint256 tokensTotalbuyed;\n\n    using SafeMath for uint;\n\n    constructor() {\n        _token = new DisneyToken();\n        _owner = payable(msg.sender);\n    }\n\n    modifier isOwner(address _address) {\n        require(msg.sender == _owner, \"You are not the owner\");\n        _;\n    }\n\n    modifier isUser(address _address) {\n        require(msg.sender != _owner, \"You are the owner, you can`t use the attraction\");\n        _;\n    }\n\n    function priceTokens(uint _tokensAmount) internal pure returns (uint) {\n        return _tokensAmount.mul(0.1 ether);\n    }\n\n    function buyTokensDisney(uint _tokensDisney) public payable returns (bool){\n        require(msg.sender != _owner, \"Owner Contract cant buy tokens\");\n        require(_tokensDisney > 0, \"Number of tokens must be more than zero\");\n        require(_tokensDisney < _token.totalSupply(), \"Tokens Disney not available\");\n\n        uint cost = priceTokens(_tokensDisney);\n        require(msg.value > cost, \"You dont have enough ether for this purchase\");\n\n        uint dif = msg.value - cost;\n\n        payable(msg.sender).transfer(dif);\n        _token.transfer(msg.sender, _tokensDisney);\n\n        if(usersDisney[msg.sender]._tokensBuyed > 0) {\n            usersDisney[msg.sender]._tokensBuyed.add(_tokensDisney);\n            usersDisney[msg.sender]._tokensRemaining.add(_tokensDisney) ;\n        }\n        else {\n            string [] memory attractions;\n        \n            Client memory client = Client(_tokensDisney,0,_tokensDisney,attractions);\n            \n            tokensTotalbuyed.add(_tokensDisney);\n            usersDisney[msg.sender] = client;\n        }\n\n        return (true);\n\n    }\n\n    function myTokens() public view returns (uint){\n        return _token.balanceOf(msg.sender);\n    }\n\n    function balanceTokensDisney() public view returns (uint){\n        return _token.balanceOf(address(this));\n    }\n\n    function totalSuplyDisney() public view returns (uint){\n        return _token.totalSupply();\n    }\n\n    event newAttraction(string);\n    event enjoyAttraction(string);\n    event damagedAttraction(string);\n\n    struct Attraction {\n        uint price;\n        bool state;\n    }\n\n    mapping (string => Attraction) public _attractions;\n\n    function addAttraction(string memory _name, uint _price) public isOwner(msg.sender) returns (bool){\n\n        Attraction memory _attraction = Attraction(_price,true);\n        _attractions[_name] = _attraction;\n        \n        emit newAttraction(_name);\n\n        return (true);\n    }\n\n    function disableAttraction(string memory _name) public isOwner(msg.sender) returns (bool){\n        require(_attractions[_name].state == true, \"The attraction has already been disabled\");\n        _attractions[_name].state = false;\n\n        emit damagedAttraction(_name);\n        return true;\n    }\n\n    function enabledAttraction(string memory _name) public isOwner(msg.sender) returns (bool){\n        require(_attractions[_name].state == false, \"The attraction has already been enabled\");\n        _attractions[_name].state = true;\n\n        return true;\n    }\n\n    function isEnabledAttraction(string memory _name) public view returns (bool){\n        return _attractions[_name].state;\n    }\n\n    function useAttraction(string memory _name) public payable isUser(msg.sender) returns (bool, uint){\n        require(isEnabledAttraction(_name) == true, \"The attraction is disabled, use other attraction\");\n        require(myTokens() >= _attractions[_name].price, \"You dont have enough tokens\") ;\n\n        _token._transfer(msg.sender,address(this), _attractions[_name].price);\n        usersDisney[msg.sender]._tokensSpent.add(_attractions[_name].price);\n        usersDisney[msg.sender]._tokensRemaining.sub(_attractions[_name].price);\n        usersDisney[msg.sender]._attractions.push(_name);\n\n        emit enjoyAttraction(_name);\n        return (true, usersDisney[msg.sender]._tokensRemaining);\n    }\n\n    function getHistorialClient () public view returns(string [] memory){\n\n        return usersDisney[msg.sender]._attractions;\n\n    }\n\n    function returnTokens(uint _tokens) public payable returns (bool){\n        \n        require(myTokens() >= _tokens, \"You dont have enough tokens\");\n        require(_tokens > 0, \"You number tokens are invalid\");\n\n        _token._transfer(msg.sender,address(this), _tokens);\n\n        payable(msg.sender).transfer(priceTokens(_tokens));\n\n        return true;\n    }\n}",
  "sourcePath": "/Users/cowi/Desktop/Solidity/solidityExamples/TruffleDisney/contracts/Disney.sol",
  "compiler": {
    "name": "solc",
    "version": "0.8.11+commit.d7f03943.Emscripten.clang"
  },
  "schemaVersion": "3.4.4",
  "updatedAt": "2022-02-05T16:28:04.591Z",
  "networkType": "ethereum",
  "devdoc": {
    "kind": "dev",
    "methods": {},
    "version": 1
  },
  "userdoc": {
    "kind": "user",
    "methods": {},
    "version": 1
  }
}